:20000000F03B0020C968000001C9011001C9011001C9011001C9011001C9011001C9011042
:1C00200001C9011001C9011001C9011001C9011001C9011001C901103FC9011089
:20003C002DE9F04FD44C601C04F11C01ADF1440D06F0ECF900264FF6FF70A670D72160820D
:20005C00102003F0BFF8D54D012332462070294604F1A80006F07EFB0223324604F1CC0083
:20007C00294606F077FB0423324604F1F000294606F070FB4FF0040A04F1480810224046EF
:20009C00314684F803A005F062FB04F1580910224846314605F05BFB04F120073E6004F1D5
:2000BC000B052E7007202672EC2166720222A07210200346CDF8008003F084F81020EC2132
:2000DC000322CDF80090034603F07CF81020EC2152460097134603F075F84FF0080B4FF024
:2000FC00030905F12D000C9005F17C000D9005F121000E9005F15D000F902735109519E069
:20011C00A078B4F84050B4F84230B4F84420B4F8461006280ED1ADF81A50ADF81C30ADF88D
:20013C001E20C148ADF8201007F030FE012006A905F04EFAE069BB4A31464FF0FF3300F02F
:20015C002BFA071CF6D002960DF122000DF12E0102AA06F025FF002840F0CC81BDF822103E
:20017C006078102940F0C2819DF82E10884240F0BD81029D29884FF6FF728A4200F0AB81E6
:20019C002B78A23B00F08E812E3B40F0AF81A978B046002900F04A81891E00F01981491E68
:2001BC00012940F2EB80891E00F0AC80491E7FD0491E60D0083900F06581891E40F0688175
:2001DC0094F83E30A888052BADF80C004BD001208DF81600944807F0D9FD94F83E00012885
:2001FC0020D004281ED003280DD002280BD00298C188ADF80E100189ADF810104189ADF868
:20021C00121081892BE0B4F84000B4F84250ADF80E00B4F84430ADF81050B4F84610ADF8E2
:20023C0012301CE0B4F84000E9888842D8BF081CADF80E002989B4F842008842D8BF081CAA
:20025C00ADF810006989B4F844008842D8BF081CADF81200A989B4F84600884200DC084697
:20027C00ADF8140001E08DF816601020872103AA02F0A8FF0CE1AB4807F088FD6B78002B45
:20029C0040F00681E888A0822889E08268892083654807F04DFC002840F0FA80A56A002D57
:2002BC0000F0F6802B68A08AE18A228B9847EFE0AA881020732102F085FF0C98414606227A
:2002DC0005F045FAA682E6822683A8796073564807F05CFD934807F059FD4FF001084FF6FE
:2002FC00FF706379608253B9A879082812BF84F802A00520A070404607F02AFCC8E084F86D
:20031C000290C5E06B787BBB291D0C980A680260898881800623A37068896082E889A082FF
:20033C00288AE082688A2083E878207394F83E00012818BF02280BD110207E211F2202F033
:20035C0041FF4FF47A7180B24143374806F000FD68890090CDF804A0EA78722110202D1D92
:20037C002B4602F02FFF96E06878312840F08780267184F802A08EE0700500206B78002B24
:20039C007DD1A878238AA178032815D02079657933B9012814BF6671267108E06D7B000060
:2003BC00054304D07748194606F0D2FCA1780729DFD10620A0706EE0062907D02579002DD5
:2003DC0008BF84F8029066D00220F3E70720F1E76B78002B53D1EB78A17893B902291DD0E9
:2003FC0007291BD0062902D16079012816D1032914D0644807F09CFB80B9012007F0A8FB9D
:20041C000CE007F07BF80246E07900900D98832143460190102002F0D5FE68706D78002DF7
:20043C002DD135E0070000803C0600206B7833BB55480090ED2102221020034602F0C2FE49
:20045C005248ED214A4600901020034602F0BAFEED1C0E9829680160A988012381806078C6
:20047C00A37007F04BF802460F9DA0798321012300901020019502F0A5FEC0B258B184F85C
:20049C0002B008E0AA8810208C21052302F09AFEB8F1010F2AD1656A45B32D6835B3A078D5
:2004BC00A84723E06879132820D12889012808D1A07B022805D11B4807F068FC06F08EFE13
:2004DC0014E010207E21052202F07CFE81B2154806F03EFC0AE06888C00B07D32C4852465F
:2004FC00ED2100901346102002F06CFE029808B107F02CFC6579207979082ED355EA0003B0
:20051C002BD01F4800787DB9217A657A8DF82410109A8DF8255013680DF126052B6092888F
:20053C00AA8003E0600600208DF82490A17A8DF82C10E17A8DF82D1006F0E0FF0246842118
:20055C0009AB102002F03EFE38B1656A84F802B01DB12D680DB15846A847B80803D30D49ED
:20057C00304605F035F8F808FFF4E4ADA07B401E3FF4C6AD401E7FF4DDAD06F02FFED9E5E8
:20059C007105002018060020B8050020C805002090050020AE050020DFF800F0F99B0110AD
:2005BC002DE9F04FDF4C04F108012046ADF1440D05F02CFF04F12C050021284600F0A0FAED
:2005DC00DC4941F28832012304F16C00E56006F0C1F84FF08040002105F0DAFC7D211F22AA
:2005FC0006236060102002F0EDFD01250020ADF81A0080468DF8355029468DF836800DF16D
:20061C003502ADF820805020ADF81C004FF44870ADF81E004FF47A70ADF8220040F20530F8
:20063C0001F0A0F940F2063002210DF11A0201F099F94FF442701E2104F14D0201F092F9F8
:20065C0040F20730072104F11C0201F08BF94FF4447029460DF1360201F084F940F21130E8
:20067C00022107AA01F07EF940F2123002210DF11E0201F077F940F21330022108AA01F0D1
:20069C0071F94FF4457002210DF1220201F06AF904F138006A21424615230090102002F019
:2006BC0091FD10207D210622A02302F08BFD10207D210722A02302F085FD10207D21082237
:2006DC00A02302F07FFD10207D210922A02302F079FDCDF81480AA468DF8398005A88DF8F0
:2006FC0037A070218DF838A04FF481628DF83AA004230090102002F065FD0DF13700702193
:20071C004FF480622B460090102002F05BFD0EA8702140F202422B460090102002F052FDEE
:20073C000DF13900702140F203422B460090102002F048FD0DF13A00702140F206422B4642
:20075C000090102002F03EFD10206B214FF0FF3202F038FD1020C8214FF0FF3202F032FD93
:20077C00C94F1020C72113230090C84A019702F029FDC74D2878800004F024FEC54EB06038
:20079C00A0B12F7847B14FF6FF72001F414620F8042F7F1E8170FAD11020BF49009006F18E
:2007BC00140211230191C72102F00CFD03278DF83BA002208DF83D7004238DF83C00CE4981
:2007DC008DF83E3009AF40460A6809793A600DF13B023971514603F065FE50460FAA0146D6
:2007FC0003F060FE022051460DF13D0203F05AFE032051460DF13E0203F054FE04200521C4
:20081C0009AA03F04FFE04F118007060A9786878A9B904F11401696206F070FECDF800800B
:20083C00024605F14800019005F15807029705F120060396EB787B21102002F0C3FC04F10D
:20085C0024021020742102F0BDFC207806F056FE02467C21102002F0B5FC207806F04EFE72
:20087C000246A621102002F0ADFC1020132102F0A9FC6068414689A30A4606F08AFD42F20B
:20089C00030BA0689D4A41464FF0FF33FFF784FE071CF6D0CDF8108006A80DA904AA06F089
:2008BC007FFB002840F0A180BDF8181020785646102940F095809DF83410884240F09080B7
:2008DC00049D29884FF6FF728A4258D02B78913B32D01F3B40F084806978162910D029795F
:2008FC0060687E2909D07F291ED129896FA300914246052106F04DFD16E0297A6FA3F6E732
:20091C0006F0FCFDCDF800A06A8803465821102002F058FC40B9304605F042F9464625618C
:20093C005EE0C04608020020297905F1080006F075FF55E03D7B000068780E3802D0801EA0
:20095C0018D04DE0A88883454AD1A9680D78002D46D1491C0BA80A68496802600BAD416083
:20097C0028780BAA4E2100F0FD002870102002F029FC35E00820414601F060FE30E06888B8
:20099C0040082DD325695DB36078401C607005F1080300936A882B79A721102002F012FC2F
:2009BC005FFA80F9B9F1160F12D02078B9F1040F0ED0256906F0A2FDCDF800806A880346C2
:2009DC005821102002F0FEFB484605F0E9F807E0607800906068052142463CA306F0D9FC94
:2009FC00049810B10EB107F0B1F9F80F39D333E0E068054600F088F8854208BF464602D009
:200A1C00866806F001FC301CB14625D00688761E1CD0761E1DD18678656846B1B61E18D192
:200A3C0002200DF13F0105F01FFF2DA305E040460DF13F0105F018FF2CA39DF83F000421DA
:200A5C0042460090284606F0A4FC02E0807801F0D3FE484606F0D8FBE06800F059F80028BA
:200A7C00C6D07808FFF40DAF07F002F9022010A905F0FAFE00287FF404AF0320514610AA19
:200A9C0003F010FDFDE6C046FC8200009C0B002070050020CC0C002008830000424C452001
:200ABC005065726970686572616C00C04D54552053697A653A20256400C046C046432056F5
:200ADC00696F6C617465643A202564005273702073656E642072657472793A20256400C03D
:200AFC004368617220333A20256400C04368617220313A20256400C061830000010000C04F
:200B1C00DFF800F0A1B60110DFF800F019BD0110DFF800F04FBF01102DE9FF47C44C0F4635
:200B3C000646F80B80F05981B80880F04681207BDFF80893B90F80F0BA80A07A002840F018
:200B5C009A803809C0F09980E07A20B10020E072052006F0D7F900254FF00108B54965708D
:200B7C0004F178002A4684F8088007F0FEF8607901281AD1A079C0B9DFF8BCA2DAF8000005
:200B9C0000283CD048460068006B8047A1695346401A000BE0611968226A8018B0EBC11F74
:200BBC0098BF20622BD9256201E084F8058040F609002087A24994F845000A1D00F0F0002A
:200BDC0040F0010084F845001368658794F8440000F0F00084F8440023F002001060E56363
:200BFC006FF002020A6004F1380341F8103C08688008FCD30A60486840F002004860914AC1
:200C1C001068914920F00200A56140F400701060032341F8043C41F230038B60404608605C
:200C3C0050238B6008604FF4CA638B60086041F80C0C0220156006F065F9112003F092FC21
:200C5C00307C10B90E2003F08DFC25726572A078012803D006F1400000F000F97B4806F0FE
:200C7C00D7FF7B490878F8B10D7004F1D400042106F088FE18E0380914D2B80BC0F0CE80CE
:200C9C0004F1280007F07EF8061C08D0706830B17568F068B6F91C1000222023A84727F47C
:200CBC000057BBE00020A07227F00807B6E020B1042006F027F900202073B168088840F69B
:200CDC0002084FF0000A80450AD0B0F5C15F07D00A8B4FF61F60104040F43470088306E078
:200CFC000A8A4FF61F60104040F434700882A069D8B14D46686D016804208847A8B128688F
:200D1C00006B8047A169814226BF401A401E401A000BF060708AF168401840F6C411F06060
:200D3C0081422CBFB0F5FA7FF160B5699DB14948A84210D094F8450010F00F0F0BD1718DEA
:200D5C0008F10700884206D130466FF4807152464FF00073A847404904F17800524607F04E
:200D7C0004F8A07958B10220ADF80000684606F0A3FA84F806A0BDF80800A4F87400012021
:200D9C0060702079401C207104F1240084F807A006F0F8FF002808BF47F0020702D019207E
:200DBC0006F0DEFE75692DB1514630464FF080630A46A84727F0005730E004F13005284605
:200DDC0006F0E0FF03F0CEF8284606F0DBFF27F0020708B147F0020720E000F043F80146A0
:200DFC0004F12C0006F0CEFF0646B569A80810D27EB125EA0500B061084600F037F870685E
:200E1C0050B12A46F068B6F91C1075680023A84702E0084600F02AF827F4804727B104F132
:200E3C00D400394606F0AEFD0090BDE8FF87C046B8080020857500007C1F00208C010010AF
:200E5C0010100440000004600C41044061390000781F002037590000713A0000DFF800F0CA
:200E7C00E1A30110DFF800F085BF0110DFF800F061C001102DE9F0434A4D95F8E700ADF1BA
:200E9C002C0D00287AD13F4F387B01240021242285F8E7407E6885F8E6000823C5F8106177
:200EBC0001A800F081F8002605F10C00069601ABADF8146034490796324600F079F833490C
:200EDC0005F1300001AB324600F072F8304905F1540001AB324600F06BF8B96820468847C2
:200EFC00DFF8BC802B4808F104037A7B00781868C0F3815922B1B9F1030F04D185F8E140D4
:200F1C00B9F1030F1ED0B9F1020F1BD0B9F1010F2DD14FF08059D9F8A4011F4F456831468D
:200F3C004FF040521C23032000903846A847D9F8A40131464FF400720923456800943846D8
:200F5C00A84714E0022006F08DF8B9F1030F0CBF4FF47A7142F21071104800685435B1FB96
:200F7C00F0F1284600F028F8284600F029F840460068C00802D2304606F074F80BB000203A
:200F9C00BDE8F083A8820000AB5F0000E9540000555300008E1F002000A00C406C8300005C
:200FBC00B03F0050F00D0020DFF800F0C1BF0110DFF800F069B20110DFF800F0E5C00110F1
:200FDC00DFF800F01FBE0110002948BF0021044A02EB8000026861F3050202607047C04650
:040FFC000010084099
:20100000B41200001810000015AB0110FDB301106DC00110FDAE011099B5011000000000F7
:08102000000000002F00000099
:20102800B01200003C100000B1C00110A9BF011067C0011069B80110000000000000000035
:041048002D00000077
:20104C00B012000060100000BDC00110CDB30110D9BD01106DB3011000000000000000005B
:04106C002E00000052
:20107000000000002812002004000000000000000000000020000000E8C9011030000000F0
:2010900028100000301200200400000000000000000000000C000000D8CA011018000000CB
:2010B0004C1000003812002004000000000000000000000024000000F0CA0110180000004F
:2010D00000000000401200200400000000000000000000001000000018CA01102C0000005B
:2010F0000010000048120020040000000000000000000000200000006CCA011024000000C7
:20111000FFFFFFFF501200200400000000000000000000002800000090CA01102400000086
:20113000FFFFFFFF581200200400000000000000000000001400000008CB01101800000005
:20115000FFFFFFFF6012002004000000000000000000000058000000B4C9011034000000D3
:20117000FFFFFFFF681200200400000000000000000000001000000020CB011018000000A1
:20119000FFFFFFFF701200200400000000000000000000001C000000B4CA011024000000CE
:2011B000FFFFFFFF781200200400000000000000000000003800000044CA011028000000F6
:2011D000FFFFFFFF801200200400000000000000000000005400000078C901103C0000006B
:0811F000010000007083000003
:0411F80001000000F2
:0411FC0000000E00E1
:0412000000000F00DB
:0412040032000000B4
:0412080001000000E1
:04120C003811002075
:0412100000020000D8
:0412140000000000D6
:0412180001C90110F7
:04121C0000000000CE
:0412200000000000CA
:0412240008000000BE
:04122800000023009F
:04122C00301000205E
:0412300001000000B9
:041234005011002035
:0412380008000000AA
:04123C00F810002086
:0412400000000000AA
:0412440000000000A6
:04124800080000009A
:04124C00000000009E
:04125000000000009A
:041254000000000096
:041258000000000092
:04125C00010000008D
:0412600098100020C2
:041264000600000080
:041268000100000081
:04126C00980F0020B7
:04127000000000007A
:041274000000000076
:041278000002000070
:04127C00000000006E
:02128000290043
:02128200010069
:02128400250043
:021286002D0039
:021288002E0036
:02128A002F0033
:02128C0001005F
:01128E00015E
:081290000300000020830000B0
:0812980000000000000000004E
:0412A0000000010049
:0412A4000000030043
:0412A80013C401105A
:0412AC00557A00006F
:0412B000B812000070
:0412B400B81200006C
:0412B8000000000032
:0412BC0050110020AD
:0412C0001B7B000094
:0412C4002000000006
:0412C800848200001C
:0412CC00B0810000ED
:0412D00029C101101F
:0412D400F3740000AF
:0412D8007B76000021
:0412DC00A1C7011095
:0412E000A3C701108F
:0412E4000000000006
:0412E800A7820000D9
:0412EC00FC7F000083
:0412F0001480000066
:0412F400E47F000093
:0212F8000200F2
:0212FA000900E9
:0212FC000100EF
:0212FE000000EE
:0113000001EB
:04130400BD7A0000AE
:04130800DD6D000097
:04130C00F175000077
:04131000896F0000E1
:04131400EF6F000077
:04131800156E00004E
:04131C005558000020
:04132000137C00003A
:041324001D61000047
:0413280015C70110D4
:04132C0025C70110C0
:201330002DE9F04F09AFADF13C0D08900A92388809911E46ADF81800101C08BF002000F0F7
:201350008481002700F101094FF0FF3A4FF0010BB8466CE1252940F063811078521C0A9254
:201370002D2818BFADF8068005D15846551CADF8060010780A9530281CBF4246434605D135
:201390000A9908785A465B46491C0A912A28CDF80080554616D1306804930A99CDF808A081
:2013B000C01C4B1C20F00300001D306050F8044C0A93002C0878009418D5ADF806B06442B7
:2013D000009413E044460AE0610001EBC40140180A99A0F1300408780094491C0A913028C4
:2013F00001DB3A28F0DBCDF808A004932E282BD10A9908782A2801F101010A9111D1306800
:20141000CDF80880C01C20F00300001D306050F8045C002D48BF454608782B46491C0A917B
:2014300011E0454643460AE0690001EBC50140180A99A0F1300508782B46491C0A91302888
:2014500001DB3A28F0DB02930AB1224604926C2804D04C2818BFADF8048005D10A99087850
:20147000ADF804B0491C0A910BA9CDF80C800FAB07916428059300F08B80692800F0888004
:20149000BDF818C0752872D078286ED06F286AD0702850D063283DD073281ED009980A9904
:2014B0000128A1F101010A9115D96B490C68B5F1FF3F03D0A84288BF6D1C00D8099D029528
:2014D00008A80AA932466B46A047C7190A99039801F1010974E040462AE030680A99C01C74
:2014F00020F00300001D306050F8040CBCF1000F01F10109014608B955A00146079106F03A
:20151000CBFA0390B5F1FF3F5BD0A842C4BF281C039056E03068C01C20F00300001D3060A6
:2015300010F8040C5D468DF82C000A990395584601F1010945E0082035680490E81C20F0C8
:201550000300001D306050F8041C082210230FA804F0B2F9401E0790402101700A990798A7
:2015700001F1010929E0082302E0102300E00A230A99306801F10109C01C20F00300001DC6
:20159000306050F8041CAA42BCBF2A1C049210E00A99306801F10109C01C20F00300001DCD
:2015B000306050F8041CAA42BCBF2A1C04926FF009030FA804F080F90790059D281A039043
:2015D000009C241ABDF8065000945DB906E008A8202109AA05F0F8FE009C7F1C641E0094AA
:2015F000F5D503980546401E039075B9BDF80600E8B10098401E009019D408A8202109AAA1
:2016100005F0E2FE00987F1CF4E70798411C0791017809AA08A805F0D7FE03987F1CE1E79F
:2016300008A809AA05F0D0FE7F1C09F101094A460A9812F8011C401C00290A907FF48AAEB2
:20165000089808B14146017038460FB0BDE8F08F286E756C6C2900C07C830000BB482DE9E4
:20167000F84F0025BA4CB849056094F8E200002800F06581012800F02F81B64E02283CD013
:20169000032840F05C8151F8250CD4F8B8100029A0F5C060C4F8D400B8BF49420028B8BFE5
:2016B0004042814226DA4FF08057D7F8A4014568B4F8BC0030214FF47F42082300903046B0
:2016D000A847D7F8A4014568B4F8C00004214FF4F802122300903046A847D7F8A401B4F8D2
:2016F000D070456820214FF440620A2330460097A847012584F8D8501CE151F8258C06F0E7
:201710009FFA2F4600B901273946934F38680028FCD0B146012609F10409D9F82CA03E6075
:2017300009B106F093FACAF30720C4F8BC0006F087FAAA4600B9B2463B68002BFCD0D9F87D
:2017500000B0BAF1000F3E6001D006F07FFACBF38440C4F8C00006F073FAAA4600B9B2462F
:201770003B68002BFCD0D9F81C90BAF1000F3E6001D006F06BFAC9F38120C4F8D000B8F528
:20179000C061C4F8B81000F09C8094F8D80068B9C4F8D410D4F8C000C4F8C800D4F8BC705B
:2017B000C4F8C470D4F8D030C4F8CC30D4F8D410D4F8BC30002954BF02206FF0010004F18A
:2017D000C802176801EB41014018411000EB917107EBA1001060D4F8C810C4F8C43000296C
:2017F0001CDD1E293CDDD4F8CC0030B93429B4BF15391E21C4F8C81025E02A29BABFD4F871
:20181000C8000B381E20C4F8C800D4F8C4003F28B4BF401C3F20C4F8C4001FE0D4F8CC00AF
:20183000032812D011F10B0FC6BFD4F8C8000B30301CC4F8C800D4F8C4000028C4BF401EB2
:20185000051CC4F8C450032508E011F1150FC6BFD4F8C8001530301CC4F8C800C4F8CC504B
:201870004FF08057D7F8A401B4F8C43030214FF47F424568374800930823A847D7F8A4018C
:2018900004214FF400321123456832480096A847B4F8C860D7F8A40104214FF4F8021223DF
:2018B00045682C480096A847D7F8A40120214FF440620A23B4F8CC60456826480096A84733
:2018D00001E084F8D85040F2FF50404502D8801C40452FD2082030E051F8251C1F4F4BF204
:2018F000F5204843060A3868C0F3814001280CD11B4800680068804705F044F906F0ACF947
:201910003111C010484306EBE03694F8E50030B91448006820F07F408019460801E084F8E2
:20193000E5501148310C0660012741600F4D8760287808B90B2000E0052084F8E40001F078
:20195000EBF9BDE8F88FC0462D400C402C500C40F00D002000A00C4000800C40B43F0050C8
:20197000EC010010102009403C600C40B68200002DE9FC41A0F2013714468846022F40F219
:2019900034819B4E9B499C4A3F1F0F2F04D9143F4CD0BF1E1CD011E0DFE817F0D000C900C6
:2019B0000E01FB00C100B9002701AF00A700100010009D008F007F0073006600282880F2AF
:2019D0001481B8F1020F40F0108123887D2108E1B8F1010F40F009813079012800F00581FA
:2019F000324620785179507189B9002800F0FD809078012800F0B680042800F0B380062891
:201A100000F0B080052800F0AD80BDE8FC812078002840F0EA809078032800F0B08007284E
:201A300000F0AD80052840F0E080A8E0B8F1010F40F0DB802078012840F0D78006F1F000C1
:201A500006F07CF8002840F0D0803446002004F13E0103F0C3FD002840F0C78004F1CC0083
:201A700006F09AF9BDE8FC81B8F1020F40F0BD8020880A28C0F2B980B0F5486F00F3B5803B
:201A900018E0B8F1020F40F0B0802088B0F5FA7F80F2AB800880BDE8FC81B8F1020F40F02D
:201AB000A48020880628C0F2A080B0F5486F00F39C801146891C0E463EE0B8F1020F40F087
:201AD000948020880628C0F29080B0F5486F00F38C801146EFE7B8F1010F40F0868020783B
:201AF000062880F28280454E0EE0B8F1010F7CD12078042879DA0B3606E0B8F1010F74D171
:201B10002078082871DA0A363070BDE8FC81B8F1010F6AD12078042867DA0936F4E7B8F1E4
:201B3000010F62D1207804285FDC0836ECE7B8F1020F5AD1208810363146ABE7B8F1010FAD
:201B500053D17079012850D0324620781179107169B9002849D09078012803D0042818BF9A
:201B7000052842D1012005F0F9FFBDE8FC81207800283AD19078022818BF052835D1507816
:201B900005F0C2FC02468221102001F021FBBDE8FC8106F1870500211F22284603F0DDFD18
:201BB00021464246284603F09EF844467078F47105F0AAFC002311E006F1680500211F22E3
:201BD000284603F0CAFD21464246284603F08BF844467078B47105F097FC0123009483217F
:201BF00001950246102001F0F3FABDE8FC81C04670050020B4050020B0050020AE050020AB
:201C10002DE9F04F8246DAF800600C465FEA0208ADF11C0D14BF00214FF0FF3106F1480057
:201C3000834606F087F9002808BF0B2000F00681002565708448F460B8F1010F057004D0A8
:201C500065700220F46005F013FA2078012840F2AB80801E012868D9801E012833D9801E90
:201C7000012800F2DF80FFF703F906904FF0805000F5EE77D0F8DC01A378466A009321784D
:201C90002846062908BF0120019001200290A068228AE1686368B04781460698FFF7ECF86D
:201CB000B9F1000F40F0C080B8F1000F02D005F027FE02E0504605F001FC002800F0A480A1
:201CD0003868806A2AE0FFF7D3F806904FF0805000F5EE77D0F8DC01012306680093A168CD
:201CF000A27860682478AC46042C08BF9C466346B04781460698FFF7BFF8B9F1000F40F0F0
:201D10009380B8F1000F02D005F0FAFD02E0504605F0D4FB002877D03868406880474949DE
:201D3000C1F8B0510D6081467EE0FFF7A1F806904FF0805000F5EE76D0F8DC01E38A8769B8
:201D50000093E0680190208B0290A0780390207D04900121059122782846022A08BF081C17
:201D7000E1786268A368B84781460698FFF784F8B9F1000F58D1B8F1000F02D005F0C0FD31
:201D900002E0504605F09AFB00283DD03068006A80475FEA000947D13068C569A168E28A8E
:201DB0002369E078A847BEE7FFF762F806904FF0805000F5EE76D0F8DC01E38AC768009379
:201DD000E0680190208B0290A0780390207D2946049001200590257805B901460846626822
:201DF000A368E178B84781460698FFF745F8B9F1000F19D1B8F1000F02D005F081FD02E056
:201E1000504605F05BFB08B9142017E03068406980475FEA000907D1306802692169E078CE
:201E3000904780E74FF0FF39B8F1010F02D0022005F06EF85846FFF717F8484607B0BDE848
:201E5000F08FC046504502408F1F00202DE9F04F0128ADF1140D40F0E980DFF808B2DBF80E
:201E7000DC00012840F0DF800220CBF8DC0006F05DF80290012004F041FD5FEA000806D0A6
:201E90000120CBF8DC00029806F04CF8D0E006F045F84FF0000903906748684CC0F8009035
:201EB000A06A016801208847012818BFCDF8009004D1484603F0E2FE012000906048614F1B
:201ED000C0F800903868112005F0D2FE00280CBF4D460125102005F0CBFE08B145F0020585
:201EF0000F2005F0C5FE08B145F004050B2005F0BFFE20B12068544E016B308888470A20FF
:201F100005F0B6FE20B12068504E016B308888474F48012606602068816945F02000884764
:201F30004C48066005F09EFE00F001010191400814D2206A8168484888478246BAF1040FFC
:201F5000F7D0BAF1010F04D1206A42684248032190474249086820F003000860484600F06D
:201F700083F823683868986B8047019801280CD0BAF1010F04D1206A4268374831469047B2
:201F90003649086840F0030008602D48066020684169284688470B2005F06AFE20B120687C
:201FB000294BC16A188888470A2005F061FE20B12068264BC16A1888884725480660032229
:201FD000CBF8DC20234BC3F800902068416B284688470128F9D13868042004F08FFC044688
:201FF00015481F490660386808688009FCD30098012802D1304603F041FE05F027FE0820C0
:2020100004F07CFC07460398CBF8DC6005F082FF03F0D0FE029805F085FF57EA040018BFF7
:202030004FF0FF3804E06FF0040801E06FF00108404605B0BDE8F08F0C400940B8010010C5
:20205000000222432C2009407A7F0000767F000028200860800104430040034024220840FD
:2020700014100940F00D00202DE9F84FDFF8F4B10746ABF13500DFF8E0910068800880F027
:20209000D98071480068006880477A490831D1F8008000254FEA28725FEA985102F1010222
:2020B0000AD2C0F13E0110F10A0F4FEAE101D8BF08218A42B8BF0A1C644BD3F87C11C1F32B
:2020D00004611629A8BF20391B68C3F30443162BA8BF203B9A465118162905DA11F10A0F87
:2020F000B8BF6FF0090100E01521594B594E01F01F0242F4F8521A80326812F0030F18BFDE
:202110000125D20828BF45F002050FB145F004054A4692F90730C31A052B04DA9379AB4258
:2021300008BF918866D0DFF834E10F28A0F10F0C25DB0CEB0013A3F1F00C4FEA2C26072E50
:2021500088BF07263446062C88BF06245EF82470042303EB84037446E358DB1B03F0FF0477
:20217000EF0824BFC3F307273C44AF0824BFC3F307473C446F0828BF04EB136401E000242A
:2021900026465EF826E0EF080EF0FF0324BFCEF307273B44AF0824BFCEF307473B446F0880
:2021B00028BF03EB1E63A4B2ACEB0626AAEB01017443002904F1800403EB1423D8BF0121D2
:2021D000342408F0FF074C43A1B27943B1FBF3F14FF6FF738B4238BF191C802889B29180C7
:2021F00005DA10F1800FB8BF6FF07F0000E07F20D07195711A4800681F2910604FF0000084
:2022100008D340F2FF128A4206D24908401C8A42FBD301E01F219180134F0F39090940EA8D
:20223000C10047EA0001CBF8FB1F0026CBF8FF6FBDE8F88F0D490E4F4A4608200F60921DB2
:202250001070BDE8F88FC046EC0100103C1100506E62084024220840801F00209C130050BE
:20227000082009403500094000E7A48030100940FDFDA400AC3F00502DE9F0411C461546EE
:202290008C4208BF854282BF00230022E5E0002C08BF002D0AD100290EBF00286FF000000F
:2022B0006FF0000100F0E1F8BDE8F0815FF000085FF0000E002C08BF8D429CBF2C1C002591
:2022D000070C47EA01470E0CB44208BFBD429EBF5FEA044444EA15445FEA0545070A47EA42
:2022F00001670E0AB44208BFBD429EBF5FEA042444EA15645FEA0525470847EAC1774E089C
:20231000B44208BFBD4200F29380870847EA81778E08B44208BFBD427CD8C70847EA4177D6
:20233000CE08B44208BFBD4266D8070947EA01770E09B44208BFBD4250D8470947EAC16760
:202350004E09B44208BFBD423AD8870947EA81678E09B44208BFBD4224D8C70947EA4167A7
:20237000CE09B44208BFBD420DD8E60146EA5566EF01B14208BFB84201D3C01BB14158EB7B
:2023900008085EEB0E0EA60146EA95664FEA8517B14208BFB84201D3C01BB14158EB080869
:2023B0004EEB0E0E660146EAD5666F01B14208BFB84201D3C01BB14158EB08084EEB0E0E79
:2023D000260146EA15762F01B14208BFB84201D3C01BB14158EB08085EEB0E0EE60046EAB8
:2023F0005576EF00B14208BFB84201D3C01BB14158EB08084EEB0E0EA60046EA9576AF0086
:20241000B14208BFB84201D3C01BB14158EB08084EEB0E0E660046EAD5766F00B14208BFA5
:20243000B84201D3C01BB14158EB08085EEB0E0EA14208BFA84201D3401BA14158EB080841
:202450005EEB0E0EA34208BFAA423EBF2D0A45EA0465240A89D3734642461E4617460B46C6
:20247000024631463846BDE8F08170472DE9F04F6C4C22690746880FADF1140DC0F0CF8008
:202490005068406808B1804722695168664E886808B9CD6875B13568002DFCD000223260FE
:2024B00010B1804720694168C86800B180475F4804F008FF4FF00008C6F800805C4846F8A1
:2024D0001C0C5C4805F0AAFB40F60A09A4F838906379A4F83A80BD6894F84400C34604F1B4
:2024F000380A00F0F00084F84400012BC4F83CB094F84500A5F8028000F0F00040F0010015
:2025100084F8450001D17B7CABB1B8680088A9F10801814208D0B0F5C15F05D0298B4FF64C
:202530000F400840288304E0298A4FF60F400840288287F811804048016883680193C36881
:20255000406B00911022694620F0784040F0805003903A48029302F0C6FB494600E01D4657
:202570006B6813B118888142F9D1C5F804A0687B00F0F000687304F1240005F009FC80688D
:202590000088A9F10701814220D0491C81421DD03B8DEBB197F8340097F83530C7F82CB083
:2025B00000F0F00087F8340003F0F00040F0010087F8350007F12802E2639AF80D00A7F80B
:2025D0002A8000F0F0008AF80D0001E0C4F8188030680028FCD0C6F80080B968E37A0A8AC1
:2025F0004FF6FF301040088283B91548006801680120884701280FD0687B00F0F00040F028
:20261000010068730F4805F009FB05E004F0D8FA0028FBD004F0F2FAB86846F81C0C05B0C5
:20263000BDE8F08FB80800201C1004400100070601010E04350B00004C13005018000021CC
:20265000E0010010295E00007CB56D4D044668680E4628B94FF00040002103F09FFC6860C2
:2026700000213CA30A4604F09AFE20463DA3801E08D0801E61D0401E4CD0401E37D0401EA6
:2026900022D00EE06868012E05D000210A4604F086FE37A357E000210A4604F080FE39A3BD
:2026B00051E0686800210A4604F079FE6868022100223AA304F073FE01208DF803009DF898
:2026D00003000028FBD17CBD686800210A4604F066FE68680221002236A304F060FE0120C0
:2026F0008DF802009DF802000028FBD17CBD686800210A4604F053FE68680221002232A30F
:2027100004F04DFE01208DF801009DF801000028FBD17CBD686800210A4604F040FE6868BD
:20273000022100222DA304F03AFE01208DF800009DF800000028FBD17CBD686800210A469F
:2027500004F02DFE29A368680221002204F027FE7CBDC0463E3E3E535441434B20415353DA
:20277000455254002A2A2A4552524F522A2A2A003E3E20494E5445524E414C204552524F87
:20279000522100C03E3E20494E5445524E414C204657204552524F522100C0463E3E20448F
:2027B000454641554C54205350494E4C4F434B2100C046C03E3E2057524F4E4720415049BB
:2027D0002043414C4C2100C03E3E204943414C4C2054494D454F55542100C0463E3E204978
:2027F00043414C4C2041424F525421003E3E204F5554204F46204D454D4F52592100C0468B
:202810000802002070B56B4C01466068491EADF1280D5DD0491E57D0891E42D0491E3BD073
:20283000491E04D0491E34D0491E30D02CE005F025FA1020D42100F0CBFCC5B2D52101AB66
:2028500010206A1E00F0C4FC48B900956068022100223CA304F0A3FD0DF106000CE006AD47
:2028700040F21530294600F0C9FE60680221002238A304F094FD2846646803F01DFE0321D2
:2028900003460022204659E00221002219E034A300E035A3002250E0142003F087F938A37D
:2028B00007E004F16C0005F077FA142003F07EF936A360680221002204F071FD6068032188
:2028D000052205F0A5F93BE0022134A30446D8E74FF4417008A900F091FE9DF821608DF851
:2028F000056000258DF808509DF822308DF807509DF824108DF806309DF820008DF80A10C6
:202910009DF825208DF804009DF823608DF80B2001AB29498DF809601A680A60586848601C
:20293000666808A803F0C8FD034601212A46304604F035FD60681CA32A46022104F02FFDA0
:202950000AB070BD4E756D20436F6E6E733A20256400C046436F6E6E656374656400C046AD
:202970004572726F7200C046436F6E6E6563746564204164766572746973696E6700C046FE
:2029900054696D6564204F757400C046446973636F6E6E656374656400C046C041647665BD
:2029B00072746973696E6700496E697469616C697A65640008020020070B00202DE9F04FE0
:2029D000ADF1840D2090FEF75BFA04F065FC0026012804D104F034FF022808BF01265B4962
:2029F0000868C0F38150012806D151F80C0C0127010E07FA01F006435548007804F0A8FD52
:202A1000544D2C46286038B1FF2204F1400107467F1E01F8012BFBD1209909684FF000097E
:202A300001F0FF02FE2A1DD0DDF880C001F0FF074A460123FF2F0ED0B84203D903FA07F7E2
:202A50003E4201D002207EE001F0FF0147EA0909611881F840205CF8041F521C01F0FF0733
:202A7000FE2FE7D1092001F03DFE2098002124220823606017A805F049FA4FF0010804F1CE
:202A9000240017AA8DF87480414605F03BFA236843B3002794354FF0040BBA4608FA07F05F
:202AB000064219D119EA000F04BF07F0FF0141F4C04105D0E019209B90F8401053F82110F5
:202AD000254801F04DFBF8B24FF0FF31FEF782FA2368C5F800A001E0C5F800B07F1C2D1D9B
:202AF0009F42DBD301A800213022082305F006FA1A4E30780025102101AB0990184A009559
:202B100004F1080005F0F6F90DA828220823294605F0ECF90DAA7068124914952B461390AA
:202B300004F1600005F0DEF90F4951F80D0C474620F4F85040F4005041F80D0C0B4EC1F8D9
:202B5000FF7F2846376021B0BDE8F08FB43F00508E1F0020541C0020007FC76734830000E9
:202B700095770000FD6700000D300940080009402DE9F84F994692468B460646FEF778F967
:202B9000604C0090B4F93610B4F934000AAF401A40F6F8710140082980F29E80B4F9340080
:202BB00004F5A075401C6FF31F30A0860820B4F93480EB7F33F07F0304D0401E05F12005DF
:202BD000F7D1002506F1780005F088F9C5F808B085F81EA0C5F80490A5F81C804A48EE60F9
:202BF00097E80C00202100271940104005F1100383E8030004F12400EF770368002B5ED16E
:202C1000294604F09FF900285FD0A6F8C080E87F40F08000E87796F8C200012804BF86F844
:202C3000C270A771607A40B1607830B10120A0726772A7712079401C20710098FEF71CF96A
:202C5000A06A00285BD16078002834D1E079012855D0FEF70DF90646207A40BBA86804F07A
:202C700099F82B49294A236909681060B0B1DD681068401BB0FBF1F0012898BF012104D9DB
:202C9000DB681068C01AB0FBF1F1B0342046FEF799F92046FEF79AF930462EE03046FEF754
:202CB000EBF804F1D400042104F072FE27E0194901200870F0E7192004F058FF1FE004F17E
:202CD0002400294604F03EF948B9B4F9340000F6FF706FF31F30A0866FF001080CE0A6F816
:202CF000C080E87F40F08000E87796F8C200012804BF86F8C270A7710098FEF7BDF8404642
:202D1000BDE8F88FB8080020F1EFFF9F7C1F00206C830000781F00202DE9F843634C5C4D0F
:202D30005C4EDFF87881604F94F8E4100846401E0B2864D8DFE800F07E2C43062343062386
:202D500043067967042907D001220A2945F8212C14BF0220032004E0202045F8210C01208F
:202D7000024684F8E200002045F8390C0827C5F8FF7FC5F8F37F45F8392CBDE8F883052972
:202D900014BF09200620002784F8E400376078E094F8E170383D0120002FC5F81B0004BF4E
:202DB0000620002102D00021F160032084F8E400032045F8010C31603068800861D294F818
:202DD000E4103548012703290ED00068456800216022052300914046A84794F8E4000628BC
:202DF00014BF0A200720CFE700684568002160220523022000904046A8470420C4E705F01E
:202E100069F8BDE8F8832648264F0026012506600E203D6001F0ACFB022004F079F884F826
:202E3000E45084F8E360BDE8F883002038600C25786024E04FF08059D9F8A0010168202077
:202E500088472C3D0F2045F8010C41F61D56C5F80360D9F8A401466800214FF4C072072303
:202E7000022540460095B047D9F8A401C66800214FF4C07207234046B0470120386084F8F3
:202E9000E45004F17800FEF7A1F8BDE8F883C04639400C4038600C40A401001000A00C4083
:202EB0002C500C4004800C4034600C40F00D00202DE9F04F8346ADF1140D0393BBF1000F3F
:202ED00002920E9801910F9C049000F0AB80081C00F0A880101C00F0A580181C00F0A280F9
:202EF0000498002800F09E80002C00F0A080206A002800F09780514D676A281D0068002FB0
:202F100000F09080A16A05F015F840B2002808BF6FF0020700F0828084F82C002078618830
:202F300000EB80004018216A143080B288474249086030B928464068FDF796FF4FF0FF37FE
:202F50006CE08A466088DAF800502178237805EB00096088421800EB4106AA18AF1902F11D
:202F7000040803EB430283188918EE1840182D18204603F089FB2078C01C8010C9F8000081
:202F90002078C01C8010C8F8000020780837C01C8010386020780C36C01C80103060207814
:202FB0001035C01C801028602278594609F1040001F099FE2278019908F1040001F093FE56
:202FD00022780299381D01F08EFE0095484641463A46334604F07AFF47B222780398331D4C
:202FF000194601F080FE22780498291D01F07BFE22786188DAF8000002EB820252180021BC
:2030100002F0ABFB616ADAF8000088470B484068FDF72AFFF8B2992808BF002784F82C7013
:20303000384606E01CB16FF0010084F82C006FF0010005B0BDE8F08F884F002010120020D5
:203050002DE9F04304466668A7680D46ADF1340DFDF70EFF3178012903D1FDF70DFF0020F6
:20307000A7E04FF0010886F80080FDF705FF287870706878B07068687060A868B060E868EB
:20309000F06028693061287D3075687D7075A87DB075A869B061287F3077687F7077A87FEB
:2030B000B0774FF00009C6F82090C6F830904D4675627563B562B56386F82C50102386F889
:2030D0003C3086F82D5086F83D50786801F00AFB204601F013FC204601F0A0FE60B9386884
:2030F00004F0C4FA786801F043FAFDF7C1FE3570FDF7C2FE2C465BE001A8294630220823B2
:2031100004F0FCFE0694387BCDF800902A4A0990B96801AB06F1800004F0ECFE01A82946C8
:203130002822082304F0E2FE05942449386901AA2B46079006F19C0004F0D4FE01A829466B
:203150002422082304F0E2FE8DF81C80B07838B906F1D000294601AA04F0D4FE1848306148
:20317000707838B906F1EC00294601AA04F0CAFE1448F06001A8294624220823FDF71AFF6B
:203190000695ADF814501049079406F584700A2201ABFDF713FFB969FA6906F1400004F00A
:2031B000A2FC0A4A06F16C000421234604F036F920460DB0BDE8F0837D3B0000356D000064
:2031D000417D0000397D0000895000008D7B00000FB42DE9F04106AF8046ADF1280D04F03E
:2031F0005FFD0025FF241420ADF816003E1DCDF80E5026F003068DF81840361DCDF81A6020
:203210007868CDF81E0004F05DFE064604F048FD30F0010015D004F0EDFA4E492A46844655
:20323000062031F80C7F4FB14B681B689E4204D0401E02F10102F4D100E0D4B2604604F0A1
:20325000CAFB404603F030FE0146FF2905D0204603220DF11A0302F09DFB04F033FE04F065
:2032700005F82E460446009604F01AFD30F0010068D00098A04265D041F2883001A903F052
:20329000DFFEDDF80080002853D104F017FE019D01272D186068019B31464FF00042FDF73C
:2032B00081F900282CD00DF122000DF1230102AA02F044FEB8B99DF8220003A903F0DAFDA0
:2032D00040B9029A04F0E6FC00281CBFDDF80880371C15D10299684603F0B2FF60684FF0E6
:2032F000004104F0E7FD0198B0F1FF3FD2D00028D0D004F0E3FD281A02D00199814216D296
:2033100004F032FA009E04F075FA083401463EB1324652F80C0C40B9206842F80C0C2660D7
:20333000084604F058FB384603E00246F1E70190B0E7012806D028B9B8F1000F02D040464F
:2033500004F00AFDDDF81A0000680AB0BDE8F04104B07047440F00202DE9F8435A4DA5F10F
:20337000300404F1240004F013FD16460F460090FDF77EFD06F001088146B7F1FF3F0CD1B3
:20339000A06A20B9B4F93600401C07B202E0A06AB0F91C70002084F87700384603F0BEFFE0
:2033B0000327002800F08A80A16A814258D0009B98422ED03BB100990A68904209D0096835
:2033D00000290091F7D1832F41D04846FDF754FD3DE004F1B00004F081FD00980168B208D6
:2033F00002D20A6802600846002202600091009818B94846FDF740FD28E0C17F41F004010C
:20341000C177684604F040FA0146284603F09AFDEDE704F1B00004F061FDB0083ABF606A03
:203430000068002060624846FDF726FD0099C87F40F00400C877684604F026FA01462846C3
:2034500003F080FD009808B1B008EFD28327E079012836D004F1D400022104F099FA30E06D
:20347000B10803D3616A009100276762C27F012101FA08F11143C17704F050FD0446B8F14A
:20349000000F14BF1148124803F01CFF4846FDF7F3FCB00801D3009820B9204604F03AFD7A
:2034B00083270EE0C17F41F00401C177684604F0EBF90146284603F045FDECE74846FDF7F1
:2034D000DBFC3846BDE8F883E808002001000204010001042DE9F84F5FEA00091C46924661
:2034F00000917DD0081C7BD0BAF1000F78D0002C7BD0206A002873D03F4D616A281D0068FD
:2035100000296DD0A16A04F015FD40B2002808BF6FF002055FD084F82C002078618800EB9A
:2035300040004018216A0C3080B288473149AB46086030B9DBF80400FDF796FC4FF0FF358F
:2035500049E08846638860882178D8F800605A183518B71803EB41003618204603F094F8D8
:203570002078C01C8010286020783F1DC01C8010386020780836C01C8010306022784946BC
:20359000281D01F0B0FB28463A463346014604F08DFC45B2227800983B1D194601F0A3FBA0
:2035B00022785046311D01F09EFB22786188D8F8000002EB42025218002102F0CEF8616A61
:2035D000D8F800008847DBF80400FDF74DFCE8B2992808BF002584F82C502846BDE8F88F4F
:2035F0001CB16FF0010084F82C006FF00100BDE8F88FC046884F0020101200202DE9F04FC6
:203610000C464649CA7AADF12C0D84460592487B09900D7900958A7A088B0B8A0E7B91F888
:2036300005A091F802800492B1F846E008904A7AC88A0392CD7807900A7A888A02920F6AA3
:203650000690CA79488A01928A79E146A9F54079B9F11D0F10D8DFE809F05D575553514F21
:203670004D4B484543413E3C3A0F3633302D2B2522201E0F1B1A1918BCF1280F4BDA624632
:2036900010207E21FFF7A4FD21E0099EB246D046CDF814801DE00898079007980690DDF867
:2036B00018E005E03831086820608888A08032E070460AE0B1F8440009E0B1F8420004E03D
:2036D000B1F8400001E091F83E00034612E0208021E0059804900498039001E03231E2E700
:2036F000039802900298009006E0019A87310DE068310BE01846EAE7009D0BE02C31D2E7EC
:20371000276008E0583100E048311022204601F0EAFA00E025700BB0BDE8F08F70050020F2
:203730002DE9FC410746BE6833687D68986B20F4FA609863AC6B44B13168886B40F4FA60A1
:2037500088634FF0FF30BDE8FC81AA6329630024EC776C630CE09DF80000296B08706B6B8C
:20377000286BAA6B401C2863581C6863501EA863A86B90B93168886B40F4FA6088636A6BBC
:203790006878296B0128A1EB0201296303D1EB68384698476A6B144646E005F140006946A3
:2037B00003F0D0F90028D6D5FDF762FB204F8046387820B9022003F05BFC012038704046A0
:2037D000FDF75AFB1B49086840F4007008603168886B40F4FA6088636878D8B9696805F173
:2037F000EC0004F0A7FB90B9AC63FDF741FB0646387818B1022003F08BFB3C703046FDF739
:203810003BFB1027696B286BEF77401A2863686BBDE8FC8195F82D0030B1686B20B1AC6336
:2038300005F19C0004F03EFB2046BDE8FC81C0468C1F0020301000402DE9F0413B483A4993
:2038500008603B48FFF7BAF83B48021D116841F00C011160374909684A68012190473748E0
:203870000468374802680023D907500822600143D007801A99414FF47A720023FEF7FCFC38
:20389000002908BFB0F1004F28BF6FF0004060602E4C0025032004F11C0141F80C5F401E1C
:2038B0008D60FAD104F14C010620401E21F80C5BFBD1244A2449121D22F00303CF1A27629A
:2038D000A361E361A66904F11C08944618460A4601E026F8025BB142FBD8B910E82700EBFB
:2038F000810121F8045C4FF6FC761F8006EA0C0300F1E807D21A276106EA0201EC39A0F864
:20391000E810284601F064FD6061D8F80000206102F00AF803F056F803F0ACF904F0BEFA54
:203930002846BDE8F081C0466C050020592600007C800000D801001000400340EC11002058
:203950006C830000901F0020F03B0020040F0020F8B53B4C0D46A8084FD2E8086ED301256C
:203970000420257303F084FB36480068006B8047A06104F1240004F00BFA00280EBF206960
:20399000C06820614168304A09781160416812680978914207D087692FB16FF0FF010022BA
:2039B0004FF00073B847022003F062FB112000F099FE2169E571087C10B16079012803D022
:2039D0000E2000F08FFE2169496820488F680FB9CF681FB10021C1611D4F07601D4A40F214
:2039F000FF711160002787611B4941611B4804F015F9192004F04EFAF8BD04F13006304691
:203A100004F0C6F900F0B4FA304604F0C1F925F0020504F1240158B9E80803D2084604F0D3
:203A3000B7F958B104F1B00004F058FA042101E045F0020104F1D40003F0AAFFF8BDC04674
:203A5000B80800208C010010D0210840001004405100070600000460020000407D240000A7
:203A7000F8B503F0F9FE3F4E3D4F0446A00822D3B96A01B33D460020A8628A69086906F1C0
:203A900008032040104340F0020088610A6918689043186001F1100090E80C0030681A1CAB
:203AB0009043306005F1300003F04CFA022105F1D40003F06DFFB86AA10814D200F1100234
:203AD0000CCA002122400B4008BF002A0BD0016985690C40F8622C434FF48041846107F118
:203AF000D40003F055FFB86A002837D107F12404204604F04DF9051C30D03869E9688842AC
:203B100026D1A86803F046F917490860E0B906F1080128690A6810430860326805F110039A
:203B300093E80300081C1043306000233361A86846F80C0C06F1100000680028FAD020460C
:203B500003F0A2FEBD62F8BD086802F0CBF8F8BD07F1D4004FF4805103F01AFFF8BDC0466D
:203B7000B80800200C1004407C1F00202DE9F8438146D9F808703868066CD9F804504664F8
:203B90006A6CAB6CA86B16F4F06F0146A2EB03082AD1F00911D270095DD301B395F83C4090
:203BB000641EA14298BF0C1C4846214603F0EEFAA86B001BA8630DD04DE081B1484603F04B
:203BD000E5FA95F82D10A86311B9002843D101E00020A86305F19C0004F064F93BE0484683
:203BF000414603F057FC36E0F20A19D24FF00008444602E0A86B401EA86340B34846012119
:203C100003F0C4FA3868446814F00F04C0F80480F0D0286B401E2863686B401E686316E016
:203C3000386844680022202904F00F044260CCBF20270F1C4846394603F0A8FAC7F1200796
:203C5000B845C8BFB8464846414603F023FCEC77484601F0DFFFB0090BD3A96A49B10F46F2
:203C7000484603F0AAFAA86218B94846391D02F04BFCBDE8F8837047F0B5ADF1340DFDF7C8
:203C9000FFF8354908682822082340F00200086001A8002104F02AF9374C304905250023F6
:203CB00001AA079504F1D40004F01CF900213022082301A804F022F90026FF271921284A8D
:203CD000ADF81C6001AB099704F17800009604F011F92822082301A8314604F007F9214973
:203CF000079504F5847001AA334604F0FBF801A831463022082304F001F90125ADF81C505E
:203D1000099704F194001A2101AB174A009604F0F1F81649324604F1B0001346FDF74EF99F
:203D3000134803F07BFF134A3346042104F14C0003F074FB84F877606671E671267266721C
:203D5000A672E6722673A5713746A7614FF6FF70A4F874000DB0F0BD002009405979000046
:203D7000857500006D560000DD6200005D7B000061390000B5650000B80800202DE9F0477E
:203D900007467D68D7F8089090460E46FDF770F88246A86A002864D105F5847004F09EF845
:203DB0000024EC772E6250466C62FDF765F8FDF75FF82F4E3378824623B9022003F058F9AA
:203DD000012030705046FDF757F82A49086840F4807008603846414603F0EFF9A862C0B967
:203DF0003846414602F090FBA878D0B9A96805F1D00004F09FF8E8B9AC621020E877494659
:203E1000284601F0E3FCFDF733F88246307840B323E0D9F80010886B40F020008863A878A0
:203E300010B12046BDE8F087A96805F1D00004F081F810B1686ABDE8F0873846414602F045
:203E500063FB1020AC624946E877284601F0BEFCFDF70EF88246307818B1022003F058F817
:203E700034705046FDF708F84FF0FF30BDE8F0878D1F0020301000402DE9F043DFF8E080AE
:203E90008946054617464FF0FF31ADF13C0D404604F050F8334C04EBC50466682568FCF7FE
:203EB000E7FF2168096800290BD42968002905DCB9F1000F09D04FF0FF3108E0B9F1000FCD
:203ED00003D0FCF7D9FF002442E02968491C2960FCF7D2FF286802283ADA1FB90DA803F05D
:203EF0000FFF0DAF38686860B76800213022082301A804F003F84FF00009069401AB307BF2
:203F1000194A09903946CDF8009005F12C0003F0F1FF01A824220823494603F0F7FF012702
:203F300005F1640001AA8DF81C70494603F0EAFF05F1480001AA394603F0E4FF706800F0EA
:203F5000D1FB0A4A05F118002346042103F066FA4046FCF789FF20460FB0BDE8F083C046FE
:203F70002C1F00202C830000F5740000317D0000F8B5071C73D0B86840F6030120264A1CE7
:203F900002E04068761EF6B260B15EB10388994218BF9A42F5D1F9681CC828311CC149C8C0
:203FB00081E849007868BA690025BD61C8B1F87F42F00202002300F00700401E09D0401E24
:203FD00004D0801E08D14FF0805304E04FF0804301E04FF000532A467C68F868B7F91C108B
:203FF000A047FCF745FF1E4C0646383CB4F93600401C6FF31F30E08604F130000168CD7741
:2040100003F042FC3046FCF737FFF868B0F9C010B4F93620914222D1217801291FD090F8E4
:20403000C260BEB90668AEB122690E4912680968B2F1FF3F13D0B6FBF1F2012A8CBFB6FBBE
:20405000F1F101217830FCF7BDFFF8687830FCF7BDFFF8BD80F8C250284601F043FEF8BDAA
:20407000F00800206C8300002DE9F04390460A68D8F800401678814600271D463846ADF18D
:20409000140D531C242E0B6053D112F8016F5B1C4C2E0B600ED1AA68E41C24F00304241D7C
:2040B00054F8040C494602F05FF82968EF600127091A2960462E1AD1E41C24F00304241D4D
:2040D00054F8040CE41C029024F00304241D54F8040C002749460390AA68ADF8047001A80D
:2040F00000F0B2FD2968EF600127091A2960532E1FD1E41C24F00304241D54F8040CE861EB
:20411000C8F80040288B0090A968EA69D9F800004346FDF705F9D9F80040002714B1011985
:20413000C9F80010D8F800402968EF60091A01272960662E0AD12B8B23B9E41D24F00704B9
:20415000083403E0E41C24F00304241D1FB9E9690E700127EF60C8F8004005B0BDE8F083E8
:204170002DE9F0470D4606465FFA85FA280824BF2E4845402E494FEA8A03C85885EA00028F
:204190003240C2F300672B4A06EA0504B043224006F4E0240243B4F5E02F01D1500E14D3AC
:2041B00006F4E020074310D002F4E027B7F5A02707D0B7F5803704BF22F4003242F4A0221E
:2041D00003E022F4803242F4C022DFF86C80CA5008F1D00739680122002002FA0AF40C4233
:2041F00018BF101C5FEA000906D1F00D04D34146C5F3805001F80A00300E0BD3FCF738FE58
:20421000290E34BF0021211C3A68A24311433960FCF732FEB9F1000F06D0F00D04D3404686
:20423000C5F3805100F80A10BDE8F087006000A000100840007F077F002002402DE9F041B1
:2042500004469C4606AF0878DFF8C8803B8802284FF0FF0750D148684578007842F6021646
:2042700000EB0520801B16D04DF2EF64001B18BFB0F102003ED1002B3AD1BCF1010F35D16E
:204290001078CA681070C968474600248F4214BF0227271C33E05BBBBCF1020F26D150783C
:2042B000157805EB002535F001061DD1C86806682046314603F0FAF900280CBF00208078C6
:2042D00085420FD02046314603F0F0F948B931464FF6FF7003F0EAF9002808BF11240CD06D
:2042F00004808570002408E0802406E00D2404E00B2402E00A2400E00124FF2F07D04046BB
:20431000001D006818B1016809B1384688472046BDE8F081CC0C0020F8B503F091FC01F03D
:2043300011FC03F09FFC054605F00C000C284CD0E8081ED203F008F8264E376804460120E5
:20435000014603F002FA31686143884211D2224E8220B0FBF7F0211A3046FCF733FE30463E
:20437000FCF734FE0120FDF771FD304603F0B6FD2DE0280929D2194CA4F12006206881689F
:20439000174888470746042FF8D01648690905D227B101460A6822F0010203E001460A68AE
:2043B00042F001020A6098310A6842F003020A6030688169202088470B4C37682068B86B40
:2043D000804701202060206801E003F0D7FC03F03DFCF8BD6C830000FC0D0020D801001054
:2043F000004003408C2108402C2009402DE9F0412D4D0446A8781F4616468846ADF1400DFB
:20441000012803D0FFF738FC0120A870B8F1000F09D0C4F8048036B1A660FCF729FDE978F5
:2044300019B1FCF729FD00203BE0491CC9B2E970FCF722FD01251FB909A803F019FB09AF95
:20445000386820607868E060387C2074B86865746061788A6082F86800B1A0610021A02231
:2044700004F1280001F079F9684600212422082303F04CFD8DF8185004F1400000216A463D
:2044900003F040FD6846002124220823FCF792FD0649069404F1780000226B46FCF78EFD73
:2044B000204610B0BDE8F081B8080020817D00002DE9F0472C4D002850D0401E4AD0401EEE
:2044D00044D0401E0AD0401E4CD105294AD110680C35286017792F71BDE8F087012941D1F3
:2044F000AF681078002FE8703CD02048017800244FF6FF7A8046A14234DDA0003E18385A75
:2045100082451ED0B078E0B105F11400EB1C1121C268934204D0491E00F11000F8D110E0E6
:204530008146B078410805D3308801214A4600F059FDB078800804D3308802214A4600F0C9
:2045500051FD98F80010641CE4B2D4E7012909D1AD1C05E0012905D16D1C01E0012901D174
:2045700010782870BDE8F087CC0C0020700500202DE9B0430446FCF77BFC81462748021954
:2045900092F8EE10491ECFB2002F82F8EE703FD1254901EB84014A880C78904634F07F07CF
:2045B00018D1E1090FD24FF0805000F5DC75D0F8B8018169104688472868416B40468847C1
:2045D0000228F9D11EE000EB8800D0F804110020884717E04FF08055D5F8B801016A104648
:2045F0008847D5F8B801816A40468847D5F8B801016B404688470A49012008600949086831
:204610008008FCD304F03F003F2801D0FFF7B0FF4846FCF731FC0020BDE8B083F00D002060
:2046300028200860282008404C7F0000294838B5001D0468B4F1FF3F08BF002402F02CFE8E
:20465000032833D12448254B194A002501211038056003F15C00224B0160181D11600068BC
:20467000806C80471348006820B113480068204600F094FD114812490560124C0A686FF3EE
:204690005B4244EA020008600F490868C0F30130012806D10A680D48104040F400320A6042
:2046B00008600B4908680028FCD138BDFEE7C0460822044380012843000120438C21084033
:2046D000482003400000390104000940FFFFFCFC0C006842181300509404604200600C408B
:2046F000EC010010F8B50646FCF7C2FB264D0746A91991F8EE00421C002881F8EE203ED1EF
:20471000224C04EB8604267806F03F003F2801D0FFF7E8FF648836F07F0018D1F0090FD266
:204730004FF0805000F5DC75D0F8B8014169204688472868416B204688470128F9D11EE052
:2047500005EB8405D5F804110120884717E04FF08055D5F8B801C16920468847D5F8B80188
:20477000416A20468847D5F8B801C16A20468847074901200860074908688008FCD33846F5
:20479000FCF77AFB0020F8BDF00D00204C7F000028200860282008402DE9F0410646B768F2
:2047B00075688846ADF1380D684603F091F800248DF801407868069009A803F088FA01208A
:2047D00009A98DF8280002F03DF96860686840B102F058F93878694602F074F928602868A0
:2047F00008B9264617E00421224603F07FFA98F80000401E08D0401E04D0401E14BF201C27
:2048100007A002E008A000E009A0A86028680AA1122203F070FA30460EB0BDE8F081C046AA
:204830001B5B324B00C046C01B5B304B00C046C01B5B314B00C046C01B631B5B324A1B5B5A
:204850003130721B5B31313B314800002DE9F04114460F46FCF70CFB1FFA80F82448006894
:20487000007808B902F0B8FF0FB338684FF0FF3518B140280AD3810B08D17E681EB1310A0E
:2048900004D0310E02D1B9680F2908D93DB10CB1284620700820FFF76BFE002422E04FF053
:2048B0008055D5F8CC11BA680B68796808E04FF08055D5F8CC01036801224FF48070014655
:2048D00098470C49012008600B4905F5E67508684008FCD328684168022088470CB10021D3
:2048F000217004464046FCF7C7FA2046BDE8F0816C800000A802504208800240F0B5284D0B
:2049100005F12C0158C9ADF11C0D02AA58C20AC982E80A0084684668206802F0A7FE21682D
:2049300020488A6B10408863206840F2F271416496F83C0096F83D10C0100DEB8000806838
:20495000084321684863684603F0A0FA317F05EB810120688B68717FB26955F8211019430B
:20497000B37F05EB8305AB690B43019902F06CFE0D490A1F106840F010001060086840F0DE
:2049900001000860A07D0027FF2802D0E07DFF2800D11FB1086840F44040086007B0F0BD4C
:2049B0002C8000000DF8FFFF301000402DE9F0410E46294990461C4606AF8C467268087892
:2049D000BB8851783F881278002502EB012242F62321521A29D0521E052A18D9921F0CD037
:2049F000263A34D1072F30D8C7F10700984298BF83B2674407F1080121E0B84225DBC01B5D
:204A10009842D8BF83B22380DCF804000BE0F06803F042F880B2B84217DBC01B9842D8BF8B
:204A300083B22380F06839180AE0082F0DD8C7F10800984298BF83B207EB0C010F312380D7
:204A500040461A4600F04FF903E0072501E025800A252846BDE8F081F80A00202DE9FF4168
:204A7000284B4768866814460D4601A81A68998802609B798180A5428371A8BF2C1CB16803
:204A9000786803F039F878BB4FF00008CDF80080F068318A6D1C16A22B4602F0B8FEA41C16
:204AB0000246AC4213D9641BF06801A90B681018036089888180308A921D801A082804D22A
:204AD0003868F16803F017F94246641EECD1F3680BA00188D01801803868F168921C03F071
:204AF0000AF9786803F0F8F80090BDE8FF81C0461B371B5B3130721B5B25643B256448007F
:204B10001B3800C054830000F0B520480127F84201D001F06DFD204D204F214EBD4206D2DE
:204B300003CD0478A4003459401CA047F6E71D48002800D08047164D164FBD4202D210CD2C
:204B5000A047FAE7F0BD03251BE0416808300A1C2A400BD11A1C2A40AB4305D0046804305D
:204B70000C600431043BF9D1131C05D0047801300C700131013BF9D1021C2A4001D0A843D2
:204B900004300368002BE0D17047C046FFFFFFFF00000000000000009C8700000488000022
:204BB0005887000015C401102DE9FC4792460D46826844689168D768B2F8108060689946E9
:204BD00002F09AFF0028504632D1FF2D10D0401CA8F102016B1C009016A2384602F017FE21
:204BF0000646A06828B10168B819361D016000E000260A9BA8EB0601B8194A46891E03F04A
:204C1000C9F8FF2D064406D10D22701C0A21BA55461C395404E00BA00188BD19B61C298029
:204C300020683946324603F066F8606803F054F8BDE8FC871B371B5B3130721B5B25643B90
:204C5000256448001B3800002DE9F843002A894607464CBF47F6FF75151C002F08BF002086
:204C700033D03888002808BF002403D02A4600F06DF90446281B002826DD388828B1291B20
:204C9000484613A201F05CFE0419B868E0B1D7F804802E1BB8F1000F0DD0404602F0FCFE05
:204CB000401DB04207DC291B48460AA2434601F047FE04192E1B122E06DBBB68291B4846F9
:204CD00006A201F03DFE04192046BDE8F883C0463A2000C0222573222C2000C06C696E659D
:204CF0002025643A2000002A4AD05FEA000C8B071CD1830722D1102A08D370B4103A78C948
:204D100078C0103AFBD270BC103238D0042A2CD3082A05D30C2A24BF08C908C008C908C03C
:204D300008C908C092072AD0920F22E00B780370491C401C521E22D08B07F7D1C30714D172
:204D50008307D8D0121F12D308C903801B0C4380001D121FF8D20AE008C903701B0A43709F
:204D70001B0A83701B0AC370001D121FF4D2121D05D00B780370491C401C521EF9D1604604
:204D9000704770472DE9F843234D884606464FF0FF3105F12400814603F0CCF800200CE0A7
:204DB000FF2909D02A688A4204D905EB8101D1F894700FB1002627E0401CB8F1000F03D094
:204DD00018F82010FE29EBD10024346074600127B46011E0FF280ED005EB80000B78726815
:204DF000C0F8946007FA03F0104370600A680949304602F073F8641CB8F1000F04D008EB4A
:204E100084010878FE28E5D14846FCF72DF83046BDE8F883007FC767541C0020B0B5456816
:204E300084682349607DA27DADF1180D40F000400090207D0027FF2A41EA000001904FF063
:204E5000020002D0E27DFF2A00D13FB1E37DA07D1943039140F0004002900420FE214DF82E
:204E7000201005F158006946FFF78CFF6866002808BF381C1AD0617D0F2202F039FA686E6F
:204E9000217D102202F034FAA17D3846FF2902D0E27DFF2A00D140B1686E112202F028FA15
:204EB000686EE17D122202F023FA012006B0B0BD0000C0A02DE9F8432020EFF3118780F349
:204ED0001188214CA068012102F0DCFF4FF001094FF0000865692168A4F81C906A1A216889
:204EF000A4F81E80461B401A904227D387F3118840464519361A4846294602F0BFFFB042FB
:204F1000F7D92021EFF3118781F31188E18B012903D14046294602F0B1FFB0F1FF3F06D033
:204F3000A169801B814238BF081C411901E0A069291802F09FFFA4F820902560A4F81C80C0
:204F500087F31188BDE8F883780100207FB503461F480D4601881F480088144614A69842D8
:204F700005DB32462146284601F0EAFC1DE0994206DB184602F0CAFB0028F2D04268F1E7E3
:204F900015480088002808BF0CA2EBD00095002C48BF47F6FF74114E0020114901946A462E
:204FB000346802901846A047029800907FBDC0467B6D6F64756C652325647D007B6D6F641D
:204FD000756C652D726F70653A25787D00C046C0A2830000A4830000FE120000808300001F
:204FF000117100002DE9F04380462248001F056816460F46ADF11C0D4DB106A800904246DE
:205010004FF6FF711B230120A847024600E00022059252B300250095BDF818004FF0FF09C9
:205030000DF11203314601904046CDF8089001F03FF8041C14D17089ADF81000780824BF24
:205050000095A52105D2484602F05EFA0095A42101904246102004ABFEF7BAF8C4B22CB1EA
:2050700004A81B2102F0E0FB00E01524204607B0BDE8F083241200202DE9F0410746786853
:20509000BE68044600F5847002F028FF30681C4980690968C0F3C00008BBFBF7E9FE194DC2
:2050B0008046287820B1022001F032FF002028704046FBF7E1FE3168134D886B20F020003A
:2050D0008863286820F480702860606A216A091A21622369626A38469847BDE8F0814FF4B0
:2050F000FA70B0FBF1F1012998BF012104F584742046FBF767FF2046FBF768FFBDE8F08182
:205110006C8300008D1F0020301000402DE9F04180461E4800680D46416927208847012431
:2051300004FA05F61A4DC5F80064C5F87C470327C5F8807717480460C5F88477D5F8040430
:20515000012818BFC5F80444C5F8FC6312480460C5F800801023AB60204602F000FED5F8C2
:205170008C074008F8D3D5F88C17204611F0404F09D1C5F884770021C5F8FC16D5F80024A0
:20519000164218BF081CBDE8F081C046B00100100440024000E0484200004842204A2DE9D5
:2051B000F04180460124A2F13000046019480768002FFCD01B49184DC0200B1F28601868F6
:2051D000800806D253F8040C144B000C40F0F000187000204FF080571060D7F8F0010E6815
:2051F000016830468847D7F8F0014268314640469047D7F8F001816830468847D7F8A00155
:20521000C1680220884740202860074E3460BDE8F081C0469402224300600C4056620840D0
:2052300040100940B43F00509404604270B506467468B568606E02F079FA29681C488A6BC1
:2052500010408863304600F037F8304600F0E2FC2968C86A20F01000C862296815480A6BBA
:20527000104008636868FFF783F904F1800002F0FDFD04F19C0002F0F5FDA07818B904F16D
:20529000D00002F0EBFD607818B904F1EC0002F0E5FD04F5847002F0DDFDFBF7E9FD002144
:2052B0002170FBF7E9FD04F16C0002F0EFF970BD0DF8FFFFFEFCFFFF2DE9F04106467568A2
:2052D000B468FBF7D5FDA96A39B921688969090903D2FBF7D1FDBDE8F0810027AF62FBF777
:2052F000CBFDA17D3846FF2902D0E17DFF2900D118B12846214600F069FA2168886B20F06C
:20531000200088630D49086820F480700860FBF7AFFD0B4C8046207818B1022001F0F8FD1C
:2053300027704046FBF7A8FD686A296A091A29622B696A6A30469847BDE8F0813010004043
:205350008D1F00207CB51F4C3C3CE06B016804208847022818D0032816D018480068C0F318
:205370008150032814BF41F288324FF47A721649164C09684C342046B2FBF1F1FBF722FE79
:205390002046FBF723FE7CBD20680D4E456800214FF040521C23032000903046A8472068EA
:2053B000012500214FF400720923446800953046A047022001F0ACFD7CBDC046B43F0050D9
:2053D00000A00C40E00100106C830000F80D0020F8B5001D84B214F0030002D0241A241D74
:2053F000A4B202F007FA1A4A102C01461769D160C8BF5769388800221646C30BDD0319D19F
:2054100026B984420ADD3A46012617E01388C3189BB29C42138011DC174618469FB1001B0B
:2054300080B20428B4BF3C88385344F400443C803F1D08E080F40040002680B2C719388814
:205450000028DAD10027084602F0C5FA3846F8BD040F00202DE9F0411C46276815460E46F6
:205470008046ADF1280DFFB90C20FFF7B1FF071C08BF6FF0030029D0684600212422082374
:20549000FBF798FD0023069741466A46ADF810301048059302F0DAFC386008B902F072FC28
:2054B0007E60BD60276009E002F0A4F90446386802F014FDBD60204602F08DFA38684146D2
:2054D000FBF780FD3868FBF781FD00200AB0BDE8F081C046397C00002DE9B841FBF7C8FCCD
:2054F0001D4C1B4D804604F1E000007848B92C46A168022088470746102001F0FFF90FB323
:205510001DE000F07DFA70B9124800683221B1FBF0F101B9012130342046FBF753FD2046FE
:20553000FBF754FD0EE0002084F8E0002C46A168022088470746102001F0E0F917B1A1682A
:20555000032088474046FBF797FCBDE8B881C046A88200006C830000F00D00202DE9F041DD
:205570001E4615460F46044602F0D8FC8046384601F0D4FE071C03D1404602F0CBFC26E0B4
:20559000F87F10F0070F1BD113487968884202D07968A166786004F1600080E86000404647
:2055B00002F0B8FC04F140004FF0FF3102F0C2FC04F170070020A06697E80300BDE8F081B7
:2055D000404602F0A7FCF87F10F0070FFBD102200021BDE8F081C0464D6600002DE9FF41DF
:2055F0000E4605461C4C7188A08A81420CDCB188814209DBF088E18A884205D13089218BFE
:20561000884208BF182722D010207E210522FDF7DFFD77881FFA80F8F288B388ADF8027096
:20563000608AADF806208521ADF800003789ADF804306A461020ADF80870FDF7C9FDC7B291
:205650002FB9A57304F1F000414601F087FB38460090BDE8FF81C04670050020F8B5FBF7EE
:2056700007FC1C4C0746206F10F4602F27D0206F400CC6B2700807D2B00803D2F00828BF39
:20569000022602E0012600E00026751D68B200F047FE236F06F111010120884023EA000150
:2056B00038462167FBF7E8FB04EB8600476E4FB1206E294600224FF00063B84702E03846B5
:2056D000FBF7DAFB206F20B104F58470002102F05FF9F8BDB8080020F8B500680E461746E0
:2056F0004FF0FF310446483002F024FC4FF0FF35092E08D0217A0120B040084211D10843B2
:205710003546207210E0227A0721012303FA01F0104202D0491EF9D503E0227A0D46104328
:205730002072B5F1FF3F0ED06FB129463846FFF7EDFC40B1217A0120A8404FF0FF3580F0A1
:20575000FF000840207204F14800FBF78DFB2846F8BD002213460A46194671B510F0030F24
:205770000BD0002A82BF00F8011BB2F1010210F0030FF6D1002A08BF71BD11F0FF0141EAF5
:205790000121042A18D341EA0141082A0FD30E46102A08D30C460D46B2F10F0312F00F0267
:2057B00072C0103BFCD812F0080F18BF42C012F0040F18BF40F8041B12F0020F18BF20F851
:2057D000021B12F0010F18BF017071BD38B50C4621680546886B20F020008863686E217D7F
:2057F000012200F075FF686E217D012201F07EFA686E217D002201F07BFD686EA17D0022FD
:2058100001F076FDA878012806D005F1D0004FF0FF3102F08FFB03E0216888690009FCD210
:20583000686E217D102201F063FDA17D0020FF2902D0E27DFF2A00D118B1686E112201F00D
:2058500057FD38BD2DE9F8438146EFF31188202080F31188174D154C134F012605F11C00B0
:205870000660A4F114000660F86A016A14208847D9F81000810C14BF000C04202060386842
:2058900002682321002090470948066054F8180C20F4C02040F4803044F8180C2E6088F3EB
:2058B0001188BDE8F883C046840100101820094080022443000024432DE9F8430024002B13
:2058D00016460F468046254606D5002FC3F1000302D57F42761E2D2599463846494601F0BA
:2058F00011F90CA0405CB7FBF9F7002F04F1010408F8010DF1D1A64205DD3021301B401EE7
:2059100008F8011DFBD10DB108F8015D4046BDE8F883C046303132333435363738396162F5
:20593000636465660000FEE7B0B5ADF1400D02F0FDFA044600213C220823684602F082FA97
:205950001148416806918168006804900F480068002205900E480891694602F06FFA071C27
:205970000DD001F047FF0546384600F0F5FD30B1284602F030F8204602F0D4FA01E000F0F8
:20599000FBFC10B0B0BDC04630820000040F00202D7B00002DE9F0410D461E46904607461F
:2059B000062D26DA062F24DA01F024FF134CA900024601EBC501303464186068B0B11046FC
:2059D00002F009F806F8087C06F8075C06F8068C60683146083001F033FC606840684FF00B
:2059F000004102F067FA0020BDE8F081104601F0F2FF6FF00200BDE8F081C046200F0020C9
:205A100038B54FF08055D5F8E001016801208847012822D0D5F8A401C468114834210122E4
:205A30000023A047002808BF002017D0D5F8800001F008FDD5F88C01C06A80470A4A094C1F
:205A500093681168D060C01AA1EB910104FB00F3180C884228BF011C1160012038BDC04629
:205A700000A00C4040420F00481F002030B5401E4FF00004ADF12C0D0AD0401E04D0401E4B
:205A900020D1FDF749F91DE000F026F8044619E001A8214624220823FBF78CFA06940D4D94
:205AB000ADF8144009490794012201AB05F17800FBF784FA064A23462C2105F19C00009318
:205AD00002F018FA20460BB030BDC046656000006D160000F00D002098B5164C94F8E1001D
:205AF000002710B91448007860B1FBF7C1F994F8E310002906BF012184F8E3100127FBF7FD
:205B1000BBF90FB1002098BD022001F0B1FA0E20FEF7E8FD094A106848B909494020C86020
:205B300008600127D761002084F8E20098BD012098BDC046F00D0020B682000004800C4019
:205B50002C500C40164880B507683FB315498B6803EA5300C00E21D2134A106880081DD2DB
:205B7000486880081AD21068096810F0050F4FEA114101F0F00101F5E0710AD1B9420DD28B
:205B9000190F38BF40F00100D90E38BF40F0040003E0B94202D920F00500106080BDC04612
:205BB00028500940AC3F0050000009401CB5184C2169B1B1002808BF0AA305D001F1080004
:205BD000097901F031FE0CA36078009060680521002201F0E4FB206902F0BEF8002020614A
:205BF00060701CBD5273702073656E742072657472793A20256400C05273702072657472D2
:205C100079206661696C65643A20256400C046C008020020F8B50646B06801687568886B59
:205C300020F4FA6088631349086820F400700860FBF71EF9104C0746207820B1022001F015
:205C500067F9002020703846FBF716F9FBF710F9A96B11B9FBF710F9F8BD0021A963FBF7FD
:205C70000BF9686B296BEB68091A29636A6B30469847F8BD301000408C1F0020012898B507
:205C900025D11548006801680120884701281ED001F04CFC124C012104F1D800017001F0E1
:205CB000E1FF800915D20D4800683222B2FBF0F707B90F46083C3034204602F00FF920465C
:205CD0003946FBF77FF92046FBF780F901E000F06BFD002098BDC046E00100106C83000066
:205CF000F80D0020B0B50746FBF7C2F8154C0546207918B3401EC0B22071F8B904F1D40026
:205D1000082101F045FECFB12069783002F0E6F821690D48CA680068BA1AB2FBF0F2012A8E
:205D300098BF012103D9C9687F1AB7FBF0F1B0342046FBF747F92046FBF748F92846FBF72C
:205D50009BF8B0BDB80800206C830000F8B5844640F6FF741CF8013B002210E0481B401E21
:205D700010F8015B7F1E01F8015BF9D103E01CF8010B01F8010B521C5B08082AEADA5808C4
:205D9000F5D21CF8010B1CF8015B05F00F07FF1CC5F30315122F45EA001508D11CF8016BC8
:205DB000300A24BF1CF8010B60F3DF16F719AC42D4D1F8BDB0B5174C241D20680004070C4E
:205DD00023D01248006800688047114991F90720824205DD10F1800FB8BF6FF07F00C87100
:205DF0008D88BD4210D80A68D4F8D40F801A801C1F2888BF1F207F1B4008C7404FF6FF70D6
:205E1000EF19B84238BF071C8F80B0BDEC010010801F002030100940084610B500F0005141
:205E300000F0040008431ED00F480068016801208847114C012811D00C4801683220B0FBEC
:205E5000F1F2012A8CBFB0FBF1F1012178342046FBF7B8F82046FBF7B9F810BD044801F063
:205E7000DDFE0448046010BDE00100106C830000350B000000100440F00800202DE9F041E7
:205E90001D4616468846044602F01CF800F064FB071C08BF6FF002041BD001F0ABFC0E4A9C
:205EB000002132F80C3F53B914805760C2F80880317079680024296001F08DFD09E0A3422B
:205ED00008BF6FF00204F7D0491C0629E9D300F053FA2046BDE8F081440F002010B5FAF78D
:205EF000C7FF154C611C097829B110490C68FAF7C3FF204610BDFAF7BFFF0D480068006B09
:205F100080470C4A002301F013FDA26C002314001B184FF07A024FF0905044EB0104C118D1
:205F300042EB04021046001C10BDC046043004408C01001000093D00B80800202DE9F04157
:205F500014460D46804601F0BDFF01F08FF9061C08BF6FF004001ED001F04CFCB768002FD7
:205F700008BF002708D057F80C1CB160002347F80C3CFF2207F8022C01F02DFD57B117F899
:205F9000080C88F8000017F8070C287000202760BDE8F0810220BDE8F08170472DE9F041B0
:205FB00006465FEA010808BFDFF8408010480078C8B1104C07460025B54204D02068C06942
:205FD0008047064209D0206840684146024620469047002818BF201C06D17F1E04F10C04D9
:205FF00005F10105E8D10020BDE8F0818B8100003E830000D882000070B5154C01284FF091
:20601000010510D001F0F6FB217851B1491EC9B2217031B901F0DFFC606801F089F8002585
:2060300013E006460EE001F0E5FB064621460878FF2807D0401CC0B20128087002D148682F
:2060500001F08DF8304601F0C6FC284670BDC0461812002008B51348134A14490078801EBE
:206070000A2807D8DFE800F01814100614100614100609C001F02EFF11E010688008FCD20C
:2060900050688008FCD20AE008688008FCD306E008688008FCD202E010688008FCD3FCF7E1
:2060B0003BFE08BDD40E002034600C4038600C40B0B504AF3F88002F18BF0B2025D1087886
:2060D00002281FD14D686C782F7800204FF6F17507EB04277F1B012F0ED9FF1E0CD07F1E27
:2060F0001CBF011C0A200FD105241C80C9680B68136009791171B0BD01241C80C9680978CE
:206110001170B0BD002101201980B0BD1549096821280ADC212819D00C380FD00D380FD0C2
:20613000001F0FD0C01E0FD01AE0253810D0001F10D0401E10D0401E10D011E008687047CA
:206150004868704788687047C8687047086970474869704788697047C8697047086A7047F1
:2061700000207047F0010020F8B50646B08815460F46FEF7EBFE0446002D02D4281B0A28A6
:2061900006DB3368291B38460BA200F0D9FB0419B08978B1002D06D4B06801F07DFC291BF4
:2061B000401D884206DCB368291B384603A200F0C7FB04192046F8BD257000C0282725731E
:2061D00027290000C8B5074601F07CFE01F04EF8064601F065FD30F0010014BF002E6FF0D3
:2061F00004001AD067B1B7F1FF3F06D03846694600F026FF30B107460EE04FF0FF3000E021
:20621000002000907068009B00274FF000423946FAF7C8F900B901273846C8BD38B50C464F
:2062300020B141680122A240114201D1022038BD914341600E480025231800EB8401C1F83F
:20625000945003F140010978FF291ABF406850F8211044F020410548FDF782FF20464FF076
:20627000FF31FAF7B7FE284638BDC046007FC767541C0020024670B5084611464C68203874
:206290001FD0401E1AD0401E18BF6FF001001CD18D68FAF7EDFD0646286801F096FCB0F165
:2062B000FF3FF9D10025A564606C401EE06425653046A563FAF7E0FD284670BD002108464A
:2062D00001E00121002084F82D1070BD38B51248104C0168114D0C40E1430160A10908D3E5
:2062F0004068800905D328464FF40051D43001F04FFB14F4602F0CD0284600F170010A688F
:2063100004F4602400F5847014430C60002101F03FFB38BD20000E0008100440B80800209A
:2063300098B50446FAF7A4FD8446104890F87710C90803D390F87610A14213D0B0F874302C
:206350000B4F012202FA04F11943A0F87410391D0B6804F10C07BA4093430B600F680FB9FC
:20637000002101706046FAF787FD98BDB80800200810044000BF704708B5FFF7FBFFFEE7C7
:2063900038B50D4C0546A06820B10C48B0F1FF3F00D080470A4800688047606810B1014668
:2063B00028468847206800B18047064800688047FFF7E2FF38BDC046F0110020FFFFFFFF24
:2063D000081200200C120020202101704FF42B714180032101710A4981604FF0FF328262C5
:2063F0000849C1600849016108494161084981610849C16100210162416280F82C1070473D
:20641000089801102C980110509801107498011098980110BC980110F8B50C46054601F0EF
:2064300051FD00F099F8071C18D001F0E3F984460C480021243030F80C6F66B94FF6F872A1
:206450000280297047600022826078682060604601F0C1FAF8BD491C0629ECD3FFF78CFF2B
:20647000F8BDC046200F0020F8B516460C46FAF7FFFC02460F484178832554B1641E02D062
:20649000641E10D00DE08179012904D0B0F8741005E0876A0FB9802506E0806A818B3180A9
:2064B00002E0032500E031701046FAF7E5FC2846F8BDC046B8080020114990B504461122F4
:2064D000ADF1140D6846FEF70EFC0E48A41D302106270170821C7821417014F8011D09110E
:2064F0001DF80110237802F8011B03F00F011DF801107F1E02F8011BEFD105B090BDC04611
:20651000968200005C1F002070B540680C46054600F5847001F0E2FC0D482A7F0168687F48
:206530008018AA69C01D80B244430A4805F584766043B0FBF2F008186330B0FBF1F1491CEF
:206550003046FAF73FFD3046FAF740FD70BDC0466C83000040420F002DE9F843804601F029
:2065700049F90F4C03250026814654F80C7F57B9C4F800803046A660014601F05BFC60606B
:2065900018B9FFF7F9FE474501D1264601E06D1EEBD1484601F01FFA3046BDE8F883C04607
:2065B000200F0020042838B51BD1104C04F1B000054601F0F5FBA0B1284601F0DDF90A4971
:2065D0000968484364280CD2284601F087FC052000F04EFD20460121C1720421D43001F02E
:2065F000D7F9002038BDC0466C830000B8080020F8B506460F4D104F7388002417E0A00067
:2066100000EBC400321851689068D26852B9AF420BD00A7855F822200346491C0846194643
:20663000904701E0FEF75FFB7388641CA4B2A342E5DCF8BD58870000648700002DE998435C
:206650000446A76E9946904607B1B8470221002001EA080110EA090008BF00290AD104F165
:20667000600090E8060008EA010119EA020008BF002907D004F1700080E8000304F1400067
:20669000FAF7F2FBBDE8988381680A4A1160C168094A11600169094A11604169084A116016
:2066B0008169084A1160C169074A116000790749087070478C4F0020904F0020944F00203C
:2066D000984F0020804F0020844F00209C4F002038B50D460E49144660390A68AA4205D9F0
:2066F00001EB8501D1F89410884201D0022038BDFAF7BEFB074B103B1A68AC400121A94039
:206710008A4314431C60FAF7B7FB002038BDC046B41C0020E0200240F8B505460C4604206B
:20673000FEF756FE0D498E68B0B105808470CC6807460C20FEF74CFE011C0AD08F602046A2
:2067500001F074FB46B130464FF0804101F0B2FBF8BD384600F05EFDF8BDC046080200205B
:20677000F0B50D4614461F460646002124220823ADF1240D6846FAF71DFC00200590ADF893
:20679000100008484FF47A71A2B26B4600680697B1FBF0F080B2294642433046FAF70EFC2E
